:03000000020E2FBE
:0C0E2F00787FE4F6D8FD75816D020E7628
:03000600DFFE22F8
:1011C300AE07AF061EEF600C7FF51200067FF51227
:0511D300000680EE2281
:101022002048656C6C6F202025326400453A2025EB
:10103200342E31662743202020004F3A25352E31A9
:10104200662743202020253364202000453A2025AE
:10105200342E3166274320706167653A253164007A
:100F8C00044EAAAAAAAA0222001FC10AC10CC109B6
:100F9C00C10DC18EC10B5400020000000000000006
:100FAC0000000000000000000000000000540016CB
:100FBC000000000000000000000000000000000025
:090FCC00000000004200000000DA
:100B390012122B1210627F141211C312124BD28897
:100B4900D2A8200B03020E2A200D46200943200CAF
:100B59004012124BD3900001E09405900000E094FC
:100B6900004004E4F0A3F07555FF7556107557223F
:100B7900900000E0F558A3E0F5597B007A00792E42
:100B89001207267B007A00792EE4FDFF120F34D27A
:100B99000C30A003020C66300D03020C667F2C1288
:100BA90011C312124B12109D8E248F25AC24AD2532
:100BB900E412027E7B0A7AD779A3783C1201067B7C
:100BC900337A93798878C31200158F298E288D2757
:100BD9008C267F2C1211C31210D58E248F25AC249C
:100BE900AD25E412027E7B0A7AD779A3783C1201FB
:100BF900067B337A93798878C31200158F2D8E2C52
:100C09008D2B8C2A7555FF75561075572E8F5B8E57
:100C19005A8D598C587B007A00792E1207267B0051
:100C29007A00792EE4FDFF120F347555FF755610C1
:100C390075573C85295B85285A8527598526588506
:100C4900225C85235D7B007A00793E1207267B00B2
:100C59007A00793E7D01E4FF120F34D209AC22AD4E
:100C690023E412027EAB29AA28A927A82612020C7E
:100C790060064004C2908002D290C20B30A10302E8
:100C89000D27200903020D27300A03020D2930A17F
:100C990003020D297F2C1211C312124BAF29AE2862
:100CA900AD27AC26C004C005C006C007900000E00F
:100CB900FEA3E07802C333CE33CED8F92402F582FD
:100CC90074003EF583D007D006D005D004120688FB
:100CD900AF2DAE2CAD2BAC2AC004C005C006C00791
:100CE900900000E0FEA3E07802C333CE33CED8F9FA
:100CF9002416F58274003EF583D007D006D005D0BE
:100D090004120688900001E004F07006900000E0EB
:100D190004F0C209C20CC20DD20AC20E8002C20A74
:100D29007F2C1211C330A103020E28300903020ED1
:100D390028300A03020E2A30A103020E2A200E0EC1
:100D4900900001E024FFF0900000E034FFF012125F
:100D59004B7F581211C3D20DD3900001E094059036
:100D69000000E094004004E4F0A3F07555FF7556C7
:100D79001075574E900000E0FAA3E0FBAE0278022E
:100D8900C333CE33CED8F92416F58274003EF583E9
:100D9900E0FCA3E0FDA3E0FEA3E0F55B8E5A8D59CC
:100DA9008C588A5C8B5D7B007A00792E1207267B32
:100DB900007A00792EE4FDFF120F347555FF755640
:100DC9001075573C900000E0FEA3E07802C333CED3
:100DD90033CED8F92402F58274003EF583E0FCA3F2
:100DE900E0FDA3E0FEA3E0F55B8E5A8D598C588592
:100DF900225C85235D7B007A00793E1207267B0001
:100E09007A00793E7D01E4FF120F34900001E0047D
:100E1900F07006900000E004F0D20AD20E8002C2FF
:060E29000AC20B020B4B94
:10122B00438901758CE4758AA8D2AFD2A9D28C22DE
:03000B00020EBB27
:100EBB00C0E0C0F0C083C082C0D075D000C000C0FD
:100ECB0001C002C003C004C005C006C007758CE496
:100EDB00758AA8E5512401F551E43550F550E435F8
:100EEB004FF54FE4354EF54EE47B07FAF9F8AF5169
:100EFB00AE50AD4FAC4E1205D7AC00AD01AE02AF4C
:100F0B0003E4FBFAF9F8C31206777002D20BD00791
:100F1B00D006D005D004D003D002D001D000D0D061
:090F2B00D082D083D0F0D0E03276
:0300030002126185
:07126100C209C20DC20C32EC
:0A0F34008F528D538B548A55895655
:100F3E00E4F55B8B578A588959AB540556E556AA8A
:100F4E00557002055514F91205436004055B80E9DE
:100F5E00E4F55AE55AC3955B5023AF520552AB5791
:100F6E00AA58A959855A8275830012055CFBAD53A8
:0D0F7E00121257E55264106004055A80D627
:010F8B002243
:1011D800EF540FFF530501ED6003430740430780B9
:0511E8007D01021194DD
:0A1257008B5C1211D8AF5C0211EDA0
:101062001211907F051211C31211907F051211C344
:101072001211907F051211C37D017F381211947DE8
:10108200017F081211947D017F011211947D017F6D
:0B109200061211947D017F0C021194E6
:0C124B007D017F011211947F050211C388
:04119000E4FD7F38C3
:101194008F5DED600312110DC2A4C2A500855D80B0
:0811A40000D2A60000C2A62241
:1011ED008F5D12110DD2A4C2A5D2A600855D80001F
:0511FD000000C2A62263
:10110D00E4F55EF55F7580FFC2A4D2A500D2A600FE
:10111D0000E58030E71AC3E55F94E8E55E9403507F
:10112D000F7F02120006055FE55F70E5055E80E149
:02113D00C2A648
:01113F00228D
:060FD500010C01010B01FB
:10123B00D2920000D2910000C2920000C291002213
:10121700C2910000C2920000D2910000D292000059
:04122700C29100224E
:020FDC008F5232
:100FDE0075540A855255E4F553E55530E705750C01
:100FEE00018003E4F50C121202E55525E0F55505D6
:100FFE0053C3E5536480948840DF1211ACE50BB403
:10100E000111121217E554600A155412123BAF5219
:03101E00120FDCD2
:0110210022AC
:10120200E50C7004C2928002D2920000D2910000DA
:05121200C29100002262
:051140008F09E4F50C2D
:10114500E4F553F552E55325E0F5531211ACE50BE3
:10115500B4010205530552E552C3940840E7121243
:0311650002AF5383
:011168002264
:1011AC00D292750B0100D2910000A292E433F50BA0
:0711BC000000C291000022B7
:10109D0012123BE4FF120FDC7F07120FDC12123B22
:1010AD007F01120FDCE4F50C1211451211408F086F
:1010BD00750C011211458F0A121217E508FE7C00FE
:0810CD00E42509FFEC3EFE22C0
:1010D50012123BE4FF120FDC7F06120FDC12123BEB
:1010E5007F01120FDCE4F50C1211451211408F0837
:1010F500750C011211458F0A121217E508FE7C00C6
:08110500E42509FFEC3EFE2287
:10000E000202ECE86480F8E933E83360110460F032
:10001E00ED33EC337009E8FCE9FDEAFEEBFF220458
:10002E0060DED3EB9FEA9EE99DE8C2E78CF0C2F753
:10003E0095F0400CE8CCF8E9CDF9EACEFAEBCFFB1F
:10004E001202B785D0F05804700320D5B3E80470BF
:10005E00075002B2D50202F692D5EC0460F7E4CC5A
:10006E00C0E0C398F8603B94186008400DD0E0FBE8
:10007E000202CEE4FBFAC9FC8028E830E406E4C9AB
:10008E00FBE4CAFCE830E305E4C9CACBFCE854073C
:10009E006010F8C3E913F9EA13FAEB13FBEC13FC47
:1000AE00D8F130F52FC3E49CFCEF9BFFEE9AFEEDEA
:1000BE0099FDD0E0FBEF4E4D4C701222DB03020295
:1000CE00F3EC2CFCEF33FFEE33FEED33FDED30E7BA
:1000DE00EB0202CEEF2BFFEE3AFEED39FDD0E0FB48
:1000EE0050130BBB00030202F6ED13FDEE13FEEFF1
:0800FE0013FFEC13FC0202CE1B
:10010600EC4D6011E8497017ED33EC3304600DE4F3
:10011600FCFFFEFD22E933E8330470F80202EC121C
:1001260002B758046009E4CC24815006285009021D
:1001360002F62840030202F3C0E0EB4A7044B9809D
:1001460006D0E0FB0202E2EF4E701CBD8008EBFF1A
:10015600EAFEE9FD80EBE98DF0A4FEE5F00201EF91
:10016600E9CDF9EAFEEBFFEF89F0A4FCE5F0CE89D4
:10017600F0A42EFFE435F0CD89F0A42DFEE435F091
:100186008067EF4E7005BD80D780C3EF8BF0A4ACBF
:10019600F0EE8BF0A42CFCE435F0F8EF8AF0A42CFA
:1001A600E5F038FCE433CB8DF0A42CFCE5F03BF80D
:1001B600EE8AF0A42CFCE5F038F8E433CF89F0A4FD
:1001C6002CFCE5F038CF3400CE89F0A42FFFE5F003
:1001D6003EFEE433C98DF0A42EFEE5F039CD8AF05B
:1001E600A42FFFE5F03EFEE43DFD33D0E0FB5007D3
:1001F6000BBB000F0202F6EC2CFCEF33FFEE33FED6
:06020600ED33FD0202CE03
:10020C0074F8CC6480CCC86480C8F582046043C3A5
:10021C00EB9FF5F0EA9E42F0E99D42F0E89C45F038
:10022C0060305018E5825FFFE582F42B5582FB505D
:10023C00210ABA001D09B90019088016E5825BFB7A
:10024C00E582F42F5582FF50090EBE00050DBD004E
:10025C00010CC3EB9FF5F0EA9E42F0E99D42F0E8F9
:0D026C009C45F06007CC4820E701B3EC2270
:1002790075F020800E75F010800575F0087D007E00
:10028900007F003392D530D503120669EC33401054
:10029900EF33FFEE33FEED33FDEC33FCD5F0ED2209
:0E02A900E5F0247EA2D513CC92E7CDCEFF2245
:1006CA00E5692455F8E6056922785230070278551B
:1006DA00E475F0011206940205432000EB7F2ED246
:1006EA00008018EF540F2490D43440D4FF30040B08
:1006FA00EF24BFB41A0050032461FFE56A600215B3
:10070A006A056DE56D7002056C30070D7852E47567
:10071A00F001120694EF0205890211697403D207E7
:10072A008003E4C207F5698B528A538954E4F56A57
:10073A00F56CF56DE56A60077F2012070580F5758F
:10074A006BFFC201C200C202C203C205C206C208CE
:10075A001206D3FF700D3007057F00120716AF6D22
:10076A00AE6C22B4255FC2D5C2041206D3FF24D0D0
:10077A00B40A00501A75F00A786A30D50508B6FF2F
:10078A000106C6A426F620D5047002D20380D92415
:10079A00CFB41A00EF5004C2E5D204020A03D20110
:1007AA0080C6D20080C0D20280BCD2D580BAD2051F
:1007BA0080B47F201207052002077401B56A004041
:1007CA00F11206CAFF12070502073ED208D20680B6
:1007DA00951206CAFB1206CAFA1206CAF94A4B70E1
:1007EA000679FA7A0A7BFF20022EE56A602A7E00E1
:1007FA008E8275830012055C60060EEE656B70F0E2
:10080A00C2D5EBC0E0EAC0E0E9C0E0EE120A63D06C
:10081A00E0F9D0E0FAD0E0FB120543FF60AAEBC092
:10082A00E0EAC0E0E9C0E0120705D0E02401F9D00F
:10083A00E03400FAD0E0FBE56B0460DCD56BD980CC
:10084A0087D20280A2120A4660F7E56B7001041291
:10085A000301A96B600DE56B600914F56B120AEDD3
:10086A00EF60F3EA30E702F404C3995077EAF4251B
:10087A006B0430E701E404F56B800D120A4660C18F
:10088A00EA056B256B120301EA7868F630E701E4A2
:10089A00256B04D56B0420050114120A63E4C0E039
:1008AA00120AED7868E6601320E70714F61206EDDF
:1008BA00802204F6D0E014C0E07F001206EDE56B5A
:1008CA0060071206E4156B800B3005031206E4D0AC
:1008DA00E002073ED0E00480C5120A4660A0E56B3C
:1008EA00041203017868EAF6E56B20050260010448
:0508FA002404120A6352
:1008FF0074FF04C0E0120AED1206EDE56B2005024D
:10090F0060031206E4D0E0B56BE87F451206F77876
:10091F0068E67F2B30E7047F2DF404C0E012070553
:10092F00D0E075F00A84C0F01206EED0E01206EEA9
:10093F0002073E791080027908C206C2088008D2E9
:10094F00D5790A8004790AC2D5E56B047002F56B7C
:10095F00E4FAFDFEFF1206CAFC7B08200113120603
:10096F00CAFD7B1030000A1206CAFE1206CAFF7BB0
:10097F0020EC3382D592D55013C3E43000069FFF8D
:10098F00E49EFEE42001039DFDE49CFCE4CBF8C251
:10099F0001EC700CCFCECDCCE824F8F870F38017B3
:1009AF00C3EF33FFEE33FEED33FDEC33FCEB33FBE4
:1009BF00994002FB0FD8E9EB300105F8D0E0C448AD
:1009CF00B201C0E00AEC4D4E4F78207B0070C2EAB6
:1009DF00B56B0040BCC0E0120A65D0F0D0E020013A
:1009EF0004C4C0E0C4B201C0F01206EED0F0D5F0DE
:1009FF00EB02073E1206A407DB5309425807AC4C23
:100A0F0007A84209464F094E44094E4907C14309F9
:100A1F00545508854608E345084F470B1A5007B051
:100A2F002D07B42E07D72B07B82307D5200B032A82
:100A3F00077048000007CFE56BB4FF03756B061214
:100A4F0006CAFC1206CAFD1206CAFE1206CAFF78B3
:100A5F0061020330790AA2D5200314300509B910B9
:100A6F00020404B9080104A2D52006025001042093
:100A7F0002689202B56A005034C0E07F203003193B
:100A8F007F30A20272067205500F120ABCC202C258
:100A9F0006C205C2087F30800F300503E9C0E0129F
:100AAF000705300503D0E0F9D0E0B56ACC30051763
:100ABF007F30B9100C1207057F583004077F7880FC
:100ACF0003B908031207053002057F2D0207057FC2
:100ADF00202008F87F2B2006F322920280CF7F0080
:100AEF00B4070050052461F8E6FF22286E756C6C80
:100AFF002900D2011206CA3001F8C201786A30D536
:100B0F000108F60207702D504349581206CA2403F4
:100B1F00B405004001E4900B15931206F6743A12D7
:0A0B2F0006F6D203756A04020942BB
:1002B700E9D2E7C933E833F892D5EDD2E7CD33EC8D
:0702C70033FC5002B2D52206
:1002CE00EC30E7100FBF000C0EBE00080DBD000491
:1002DE000BEB6014A2D5EB13FCED92E7FD2274FF3D
:1002EE00FCFDFEFF22E480F8A2D574FF13FC7D8096
:0302FE00E480EFAA
:10030100F920E72824F950037907E4F42402FB18C3
:10031100DBFDE624FB5014E9600DE4F618E604F673
:0F032100B40A08E4F6D9F57401F60A22C2D5220F
:10033000ED33EC3392D5FA602AB4FF33EDC2E77B9C
:10034000FF60067A037955E4227A03795E20D504AA
:100350007A037959224E614E002B494E46002D49B1
:100360004E4600E47A08F608DAFC7B00740722E8BF
:10037000C0E0ECC0E0EDC0E0EEC0E0EFC0E0EA7548
:10038000F010A4CAABF075F04DA42BFBE435F0FCE3
:10039000EA2410FAEB34C5FBEC34D9FCEDC2E7FFDC
:1003A00075F056A4F42411C5F0F434C58FF0A42AD6
:1003B000E5F03BE43CF620E714120503D0E0FFD063
:1003C000E0FED0E0FDD0E0FC1204368014F404120C
:1003D0000503D0E0FFD0E0FED0E0FDD0E0FC12014C
:1003E00006D0E0F8E6FAEDD2E7CD33EC332482FB19
:1003F000E4C3CF33CFCE33CECD33CD33DBF37B0766
:1004000075F00A846004F6081B0AE5F0F6088FF020
:10041000740AA4FFACF08EF0740AA42CFEACF05069
:10042000010C8DF0740AA42CFDE435F0F608DBDE37
:030430007407222C
:100433000202F6EC5D046005E8590470030202EC65
:100443001202B7580460F6EC4860F2EC7004FDFE4B
:10045300FF22C860DB2481C85009C398600250069C
:100463000202F39850CAF582E9294B4A7005AB8220
:100473000202E275F0007C1A7880C3EF9BEE9AEDDE
:1004830099400DC3EF9BFFEE9AFEED99FDE842F014
:10049300DC23ACF0D0E0FFD0E0FED0E0FDAB822067
:1004A300E7101BEB60BAEC2CFCEF33FFEE33FEEDF1
:1004B30033FD0202CEE803F830E705C0F075F00023
:1004C300EF2FFFEE33FEED33FD40B830E7C280AAD5
:1004D3003F8000004120000042C80000447A000031
:1004E300461C400047C35000497424004B189680B3
:1004F3004CBEBC205A0E1BCA6753C21C749DC5AEAA
:10050300FB60065407601C2323120531EB5438604B
:100513000912051D12052C120106ECF8EDF9EEFA8D
:10052300EFCB22EB12052C80F1543803241C9004EA
:10053300D3FE93FC0EEE93FD0EEE930ECE93FF22AD
:100E3B00020B39E493A3F8E493A34003F68001F289
:100E4B0008DFF48029E493A3F85407240CC8C333B8
:100E5B00C4540F4420C8834004F456800146F6DF87
:100E6B00E4800B0102040810204080900F8CE47E7C
:100E7B00019360BCA3FF543F30E509541FFEE4937C
:100E8B00A360010ECF54C025E060A840B8E493A343
:100E9B00FAE493A3F8E493A3C8C582C8CAC583CA6E
:100EAB00F0A3C8C582C8CAC583CADFE9DEE780BE26
:010FDB000015
:10054300BB010689828A83E0225002E722BBFE02B6
:09055300E32289828A83E49322E9
:10055C00BB010CE58229F582E5833AF583E0225054
:10056C0006E92582F8E622BBFE06E92582F8E2229E
:0D057C00E58229F582E5833AF583E49322B8
:10058900BB010689828A83F0225002F722BBFE0151
:02059900F3224B
:10059B0075F008758200EF2FFFEE33FECD33CDCC17
:1005AB0033CCC58233C5829BED9AEC99E58298409A
:1005BB000CF582EE9BFEED9AFDEC99FC0FD5F0D677
:1005CB00E4CEFBE4CDFAE4CCF9A88222B800C1B9A1
:1005DB000059BA002DEC8BF084CFCECDFCE5F0CBDF
:1005EB00F97818EF2FFFEE33FEED33FDEC33FCEB18
:1005FB0033FB10D703994004EB99FB0FD8E5E4F9D3
:10060B00FA227818EF2FFFEE33FEED33FDEC33FCBF
:10061B00C933C910D7059BE99A4007EC9BFCE99AB3
:10062B00F90FD8E0E4C9FAE4CCFB2275F010EF2FF8
:10063B00FFEE33FEED33FDCC33CCC833C810D707F8
:10064B009BEC9AE899400AED9BFDEC9AFCE899F833
:0E065B000FD5F0DAE4CDFBE4CCFAE4C8F922C6
:0E066900C3E49FFFE49EFEE49DFDE49CFC22A2
:10067700EB9FF5F0EA9E42F0E99D42F0E89C45F0D9
:010687002250
:0C068800ECF0A3EDF0A3EEF0A3EFF022E5
:10069400FAE6FB0808E6F925F0F618E6CA3AF62267
:1006A400D083D082F8E4937012740193700DA3A3E5
:1006B40093F8740193F5828883E4737402936860F9
:0606C400EFA3A3A380DFF9
:10116900EFB40A07740D121174740A309811A89912
:10117900B8130CC2983098FDA899C298B811F630E6
:0711890099FDC299F59922BE
:00000001FF
